{
  "_format": "hh-sol-artifact-1",
  "contractName": "NFT",
  "sourceName": "contracts/NFT.sol",
  "abi": [
    {
      "inputs": [
        {
          "internalType": "address",
          "name": "_marketplaceAddress",
          "type": "address"
        }
      ],
      "stateMutability": "nonpayable",
      "type": "constructor"
    },
    {
      "anonymous": false,
      "inputs": [
        {
          "indexed": true,
          "internalType": "address",
          "name": "owner",
          "type": "address"
        },
        {
          "indexed": true,
          "internalType": "address",
          "name": "approved",
          "type": "address"
        },
        {
          "indexed": true,
          "internalType": "uint256",
          "name": "tokenId",
          "type": "uint256"
        }
      ],
      "name": "Approval",
      "type": "event"
    },
    {
      "anonymous": false,
      "inputs": [
        {
          "indexed": true,
          "internalType": "address",
          "name": "owner",
          "type": "address"
        },
        {
          "indexed": true,
          "internalType": "address",
          "name": "operator",
          "type": "address"
        },
        {
          "indexed": false,
          "internalType": "bool",
          "name": "approved",
          "type": "bool"
        }
      ],
      "name": "ApprovalForAll",
      "type": "event"
    },
    {
      "anonymous": false,
      "inputs": [
        {
          "indexed": true,
          "internalType": "uint256",
          "name": "tokenId",
          "type": "uint256"
        },
        {
          "indexed": false,
          "internalType": "string",
          "name": "tokenURI",
          "type": "string"
        },
        {
          "indexed": false,
          "internalType": "address",
          "name": "marketplaceAddress",
          "type": "address"
        }
      ],
      "name": "TokenMinted",
      "type": "event"
    },
    {
      "anonymous": false,
      "inputs": [
        {
          "indexed": true,
          "internalType": "address",
          "name": "from",
          "type": "address"
        },
        {
          "indexed": true,
          "internalType": "address",
          "name": "to",
          "type": "address"
        },
        {
          "indexed": true,
          "internalType": "uint256",
          "name": "tokenId",
          "type": "uint256"
        }
      ],
      "name": "Transfer",
      "type": "event"
    },
    {
      "inputs": [
        {
          "internalType": "address",
          "name": "to",
          "type": "address"
        },
        {
          "internalType": "uint256",
          "name": "tokenId",
          "type": "uint256"
        }
      ],
      "name": "approve",
      "outputs": [],
      "stateMutability": "nonpayable",
      "type": "function"
    },
    {
      "inputs": [
        {
          "internalType": "address",
          "name": "owner",
          "type": "address"
        }
      ],
      "name": "balanceOf",
      "outputs": [
        {
          "internalType": "uint256",
          "name": "",
          "type": "uint256"
        }
      ],
      "stateMutability": "view",
      "type": "function"
    },
    {
      "inputs": [
        {
          "internalType": "uint256",
          "name": "tokenId",
          "type": "uint256"
        }
      ],
      "name": "getApproved",
      "outputs": [
        {
          "internalType": "address",
          "name": "",
          "type": "address"
        }
      ],
      "stateMutability": "view",
      "type": "function"
    },
    {
      "inputs": [
        {
          "internalType": "uint256",
          "name": "tokenId",
          "type": "uint256"
        }
      ],
      "name": "getTokenCreatorById",
      "outputs": [
        {
          "internalType": "address",
          "name": "",
          "type": "address"
        }
      ],
      "stateMutability": "view",
      "type": "function"
    },
    {
      "inputs": [],
      "name": "getTokensCreatedByMe",
      "outputs": [
        {
          "internalType": "uint256[]",
          "name": "",
          "type": "uint256[]"
        }
      ],
      "stateMutability": "view",
      "type": "function"
    },
    {
      "inputs": [],
      "name": "getTokensOwnedByMe",
      "outputs": [
        {
          "internalType": "uint256[]",
          "name": "",
          "type": "uint256[]"
        }
      ],
      "stateMutability": "view",
      "type": "function"
    },
    {
      "inputs": [
        {
          "internalType": "address",
          "name": "owner",
          "type": "address"
        },
        {
          "internalType": "address",
          "name": "operator",
          "type": "address"
        }
      ],
      "name": "isApprovedForAll",
      "outputs": [
        {
          "internalType": "bool",
          "name": "",
          "type": "bool"
        }
      ],
      "stateMutability": "view",
      "type": "function"
    },
    {
      "inputs": [
        {
          "internalType": "string",
          "name": "tokenURI",
          "type": "string"
        }
      ],
      "name": "mintToken",
      "outputs": [
        {
          "internalType": "uint256",
          "name": "",
          "type": "uint256"
        }
      ],
      "stateMutability": "nonpayable",
      "type": "function"
    },
    {
      "inputs": [],
      "name": "name",
      "outputs": [
        {
          "internalType": "string",
          "name": "",
          "type": "string"
        }
      ],
      "stateMutability": "view",
      "type": "function"
    },
    {
      "inputs": [
        {
          "internalType": "uint256",
          "name": "tokenId",
          "type": "uint256"
        }
      ],
      "name": "ownerOf",
      "outputs": [
        {
          "internalType": "address",
          "name": "",
          "type": "address"
        }
      ],
      "stateMutability": "view",
      "type": "function"
    },
    {
      "inputs": [
        {
          "internalType": "address",
          "name": "from",
          "type": "address"
        },
        {
          "internalType": "address",
          "name": "to",
          "type": "address"
        },
        {
          "internalType": "uint256",
          "name": "tokenId",
          "type": "uint256"
        }
      ],
      "name": "safeTransferFrom",
      "outputs": [],
      "stateMutability": "nonpayable",
      "type": "function"
    },
    {
      "inputs": [
        {
          "internalType": "address",
          "name": "from",
          "type": "address"
        },
        {
          "internalType": "address",
          "name": "to",
          "type": "address"
        },
        {
          "internalType": "uint256",
          "name": "tokenId",
          "type": "uint256"
        },
        {
          "internalType": "bytes",
          "name": "data",
          "type": "bytes"
        }
      ],
      "name": "safeTransferFrom",
      "outputs": [],
      "stateMutability": "nonpayable",
      "type": "function"
    },
    {
      "inputs": [
        {
          "internalType": "address",
          "name": "operator",
          "type": "address"
        },
        {
          "internalType": "bool",
          "name": "approved",
          "type": "bool"
        }
      ],
      "name": "setApprovalForAll",
      "outputs": [],
      "stateMutability": "nonpayable",
      "type": "function"
    },
    {
      "inputs": [
        {
          "internalType": "bytes4",
          "name": "interfaceId",
          "type": "bytes4"
        }
      ],
      "name": "supportsInterface",
      "outputs": [
        {
          "internalType": "bool",
          "name": "",
          "type": "bool"
        }
      ],
      "stateMutability": "view",
      "type": "function"
    },
    {
      "inputs": [],
      "name": "symbol",
      "outputs": [
        {
          "internalType": "string",
          "name": "",
          "type": "string"
        }
      ],
      "stateMutability": "view",
      "type": "function"
    },
    {
      "inputs": [
        {
          "internalType": "uint256",
          "name": "tokenId",
          "type": "uint256"
        }
      ],
      "name": "tokenURI",
      "outputs": [
        {
          "internalType": "string",
          "name": "",
          "type": "string"
        }
      ],
      "stateMutability": "view",
      "type": "function"
    },
    {
      "inputs": [
        {
          "internalType": "address",
          "name": "from",
          "type": "address"
        },
        {
          "internalType": "address",
          "name": "to",
          "type": "address"
        },
        {
          "internalType": "uint256",
          "name": "tokenId",
          "type": "uint256"
        }
      ],
      "name": "transferFrom",
      "outputs": [],
      "stateMutability": "nonpayable",
      "type": "function"
    }
  ],
  "bytecode": "0x60806040523480156200001157600080fd5b506040516200311438038062003114833981810160405281019062000037919062000239565b6040518060400160405280600981526020017f536861726469626c6500000000000000000000000000000000000000000000008152506040518060400160405280600481526020017f53485244000000000000000000000000000000000000000000000000000000008152508160009080519060200190620000bb9291906200011f565b508060019080519060200190620000d49291906200011f565b50505080600860006101000a81548173ffffffffffffffffffffffffffffffffffffffff021916908373ffffffffffffffffffffffffffffffffffffffff16021790555050620002d0565b8280546200012d906200029a565b90600052602060002090601f0160209004810192826200015157600085556200019d565b82601f106200016c57805160ff19168380011785556200019d565b828001600101855582156200019d579182015b828111156200019c5782518255916020019190600101906200017f565b5b509050620001ac9190620001b0565b5090565b5b80821115620001cb576000816000905550600101620001b1565b5090565b600080fd5b600073ffffffffffffffffffffffffffffffffffffffff82169050919050565b60006200020182620001d4565b9050919050565b6200021381620001f4565b81146200021f57600080fd5b50565b600081519050620002338162000208565b92915050565b600060208284031215620002525762000251620001cf565b5b6000620002628482850162000222565b91505092915050565b7f4e487b7100000000000000000000000000000000000000000000000000000000600052602260045260246000fd5b60006002820490506001821680620002b357607f821691505b60208210811415620002ca57620002c96200026b565b5b50919050565b612e3480620002e06000396000f3fe608060405234801561001057600080fd5b506004361061010b5760003560e01c80635ba37742116100a257806395d89b411161007157806395d89b41146102de578063a22cb465146102fc578063b88d4fde14610318578063c87b56dd14610334578063e985e9c5146103645761010b565b80635ba37742146102305780636352211e1461024e57806370a082311461027e578063867d3397146102ae5761010b565b80630a989d9c116100de5780630a989d9c146101aa57806323b872dd146101c857806333eba49a146101e457806342842e0e146102145761010b565b806301ffc9a71461011057806306fdde0314610140578063081812fc1461015e578063095ea7b31461018e575b600080fd5b61012a60048036038101906101259190611d07565b610394565b6040516101379190611d4f565b60405180910390f35b610148610476565b6040516101559190611e03565b60405180910390f35b61017860048036038101906101739190611e5b565b610508565b6040516101859190611ec9565b60405180910390f35b6101a860048036038101906101a39190611f10565b61054e565b005b6101b2610666565b6040516101bf919061200e565b60405180910390f35b6101e260048036038101906101dd9190612030565b61077d565b005b6101fe60048036038101906101f991906121b8565b6107dd565b60405161020b9190612210565b60405180910390f35b61022e60048036038101906102299190612030565b6108ef565b005b61023861090f565b604051610245919061200e565b60405180910390f35b61026860048036038101906102639190611e5b565b610af2565b6040516102759190611ec9565b60405180910390f35b6102986004803603810190610293919061222b565b610ba4565b6040516102a59190612210565b60405180910390f35b6102c860048036038101906102c39190611e5b565b610c5c565b6040516102d59190611ec9565b60405180910390f35b6102e6610c99565b6040516102f39190611e03565b60405180910390f35b61031660048036038101906103119190612284565b610d2b565b005b610332600480360381019061032d9190612365565b610d41565b005b61034e60048036038101906103499190611e5b565b610da3565b60405161035b9190611e03565b60405180910390f35b61037e600480360381019061037991906123e8565b610eb6565b60405161038b9190611d4f565b60405180910390f35b60007f80ac58cd000000000000000000000000000000000000000000000000000000007bffffffffffffffffffffffffffffffffffffffffffffffffffffffff1916827bffffffffffffffffffffffffffffffffffffffffffffffffffffffff1916148061045f57507f5b5e139f000000000000000000000000000000000000000000000000000000007bffffffffffffffffffffffffffffffffffffffffffffffffffffffff1916827bffffffffffffffffffffffffffffffffffffffffffffffffffffffff1916145b8061046f575061046e82610f4a565b5b9050919050565b60606000805461048590612457565b80601f01602080910402602001604051908101604052809291908181526020018280546104b190612457565b80156104fe5780601f106104d3576101008083540402835291602001916104fe565b820191906000526020600020905b8154815290600101906020018083116104e157829003601f168201915b5050505050905090565b600061051382610fb4565b6004600083815260200190815260200160002060009054906101000a900473ffffffffffffffffffffffffffffffffffffffff169050919050565b600061055982610af2565b90508073ffffffffffffffffffffffffffffffffffffffff168373ffffffffffffffffffffffffffffffffffffffff1614156105ca576040517f08c379a00000000000000000000000000000000000000000000000000000000081526004016105c1906124fb565b60405180910390fd5b8073ffffffffffffffffffffffffffffffffffffffff166105e9610fff565b73ffffffffffffffffffffffffffffffffffffffff161480610618575061061781610612610fff565b610eb6565b5b610657576040517f08c379a000000000000000000000000000000000000000000000000000000000815260040161064e9061258d565b60405180910390fd5b6106618383611007565b505050565b6060600061067460076110c0565b9050600061068133610ba4565b905060008167ffffffffffffffff81111561069f5761069e61208d565b5b6040519080825280602002602001820160405280156106cd5781602001602082028036833780820191505090505b5090506000805b848110156107725760006001826106eb91906125dc565b90503373ffffffffffffffffffffffffffffffffffffffff1661070d82610af2565b73ffffffffffffffffffffffffffffffffffffffff161461072e575061075f565b8084848151811061074257610741612632565b5b60200260200101818152505060018361075b91906125dc565b9250505b808061076a90612661565b9150506106d4565b508194505050505090565b61078e610788610fff565b826110ce565b6107cd576040517f08c379a00000000000000000000000000000000000000000000000000000000081526004016107c49061271c565b60405180910390fd5b6107d8838383611163565b505050565b60006107e960076113ca565b60006107f560076110c0565b905061080133826113e0565b336009600083815260200190815260200160002060006101000a81548173ffffffffffffffffffffffffffffffffffffffff021916908373ffffffffffffffffffffffffffffffffffffffff16021790555061085d81846115ba565b61088a600860009054906101000a900473ffffffffffffffffffffffffffffffffffffffff166001610d2b565b807f9ef9d09a98563c827f651a028105395cc17f94ef23eb26b70d241439386a62f484600860009054906101000a900473ffffffffffffffffffffffffffffffffffffffff166040516108de92919061273c565b60405180910390a280915050919050565b61090a83838360405180602001604052806000815250610d41565b505050565b6060600061091d60076110c0565b90506000805b828110156109cc57600060018261093a91906125dc565b90503373ffffffffffffffffffffffffffffffffffffffff166009600083815260200190815260200160002060009054906101000a900473ffffffffffffffffffffffffffffffffffffffff1673ffffffffffffffffffffffffffffffffffffffff16146109a857506109b9565b6001836109b591906125dc565b9250505b80806109c490612661565b915050610923565b5060008167ffffffffffffffff8111156109e9576109e861208d565b5b604051908082528060200260200182016040528015610a175781602001602082028036833780820191505090505b5090506000805b84811015610ae7576000600182610a3591906125dc565b90503373ffffffffffffffffffffffffffffffffffffffff166009600083815260200190815260200160002060009054906101000a900473ffffffffffffffffffffffffffffffffffffffff1673ffffffffffffffffffffffffffffffffffffffff1614610aa35750610ad4565b80848481518110610ab757610ab6612632565b5b602002602001018181525050600183610ad091906125dc565b9250505b8080610adf90612661565b915050610a1e565b508194505050505090565b6000806002600084815260200190815260200160002060009054906101000a900473ffffffffffffffffffffffffffffffffffffffff169050600073ffffffffffffffffffffffffffffffffffffffff168173ffffffffffffffffffffffffffffffffffffffff161415610b9b576040517f08c379a0000000000000000000000000000000000000000000000000000000008152600401610b92906127b8565b60405180910390fd5b80915050919050565b60008073ffffffffffffffffffffffffffffffffffffffff168273ffffffffffffffffffffffffffffffffffffffff161415610c15576040517f08c379a0000000000000000000000000000000000000000000000000000000008152600401610c0c9061284a565b60405180910390fd5b600360008373ffffffffffffffffffffffffffffffffffffffff1673ffffffffffffffffffffffffffffffffffffffff168152602001908152602001600020549050919050565b60006009600083815260200190815260200160002060009054906101000a900473ffffffffffffffffffffffffffffffffffffffff169050919050565b606060018054610ca890612457565b80601f0160208091040260200160405190810160405280929190818152602001828054610cd490612457565b8015610d215780601f10610cf657610100808354040283529160200191610d21565b820191906000526020600020905b815481529060010190602001808311610d0457829003601f168201915b5050505050905090565b610d3d610d36610fff565b838361162e565b5050565b610d52610d4c610fff565b836110ce565b610d91576040517f08c379a0000000000000000000000000000000000000000000000000000000008152600401610d889061271c565b60405180910390fd5b610d9d8484848461179b565b50505050565b6060610dae82610fb4565b6000600660008481526020019081526020016000208054610dce90612457565b80601f0160208091040260200160405190810160405280929190818152602001828054610dfa90612457565b8015610e475780601f10610e1c57610100808354040283529160200191610e47565b820191906000526020600020905b815481529060010190602001808311610e2a57829003601f168201915b505050505090506000610e586117f7565b9050600081511415610e6e578192505050610eb1565b600082511115610ea3578082604051602001610e8b9291906128a6565b60405160208183030381529060405292505050610eb1565b610eac8461180e565b925050505b919050565b6000600560008473ffffffffffffffffffffffffffffffffffffffff1673ffffffffffffffffffffffffffffffffffffffff16815260200190815260200160002060008373ffffffffffffffffffffffffffffffffffffffff1673ffffffffffffffffffffffffffffffffffffffff16815260200190815260200160002060009054906101000a900460ff16905092915050565b60007f01ffc9a7000000000000000000000000000000000000000000000000000000007bffffffffffffffffffffffffffffffffffffffffffffffffffffffff1916827bffffffffffffffffffffffffffffffffffffffffffffffffffffffff1916149050919050565b610fbd81611876565b610ffc576040517f08c379a0000000000000000000000000000000000000000000000000000000008152600401610ff3906127b8565b60405180910390fd5b50565b600033905090565b816004600083815260200190815260200160002060006101000a81548173ffffffffffffffffffffffffffffffffffffffff021916908373ffffffffffffffffffffffffffffffffffffffff160217905550808273ffffffffffffffffffffffffffffffffffffffff1661107a83610af2565b73ffffffffffffffffffffffffffffffffffffffff167f8c5be1e5ebec7d5bd14f71427d1e84f3dd0314c0f7b2291e5b200ac8c7c3b92560405160405180910390a45050565b600081600001549050919050565b6000806110da83610af2565b90508073ffffffffffffffffffffffffffffffffffffffff168473ffffffffffffffffffffffffffffffffffffffff16148061111c575061111b8185610eb6565b5b8061115a57508373ffffffffffffffffffffffffffffffffffffffff1661114284610508565b73ffffffffffffffffffffffffffffffffffffffff16145b91505092915050565b8273ffffffffffffffffffffffffffffffffffffffff1661118382610af2565b73ffffffffffffffffffffffffffffffffffffffff16146111d9576040517f08c379a00000000000000000000000000000000000000000000000000000000081526004016111d09061293c565b60405180910390fd5b600073ffffffffffffffffffffffffffffffffffffffff168273ffffffffffffffffffffffffffffffffffffffff161415611249576040517f08c379a0000000000000000000000000000000000000000000000000000000008152600401611240906129ce565b60405180910390fd5b6112548383836118e2565b61125f600082611007565b6001600360008573ffffffffffffffffffffffffffffffffffffffff1673ffffffffffffffffffffffffffffffffffffffff16815260200190815260200160002060008282546112af91906129ee565b925050819055506001600360008473ffffffffffffffffffffffffffffffffffffffff1673ffffffffffffffffffffffffffffffffffffffff168152602001908152602001600020600082825461130691906125dc565b92505081905550816002600083815260200190815260200160002060006101000a81548173ffffffffffffffffffffffffffffffffffffffff021916908373ffffffffffffffffffffffffffffffffffffffff160217905550808273ffffffffffffffffffffffffffffffffffffffff168473ffffffffffffffffffffffffffffffffffffffff167fddf252ad1be2c89b69c2b068fc378daa952ba7f163c4a11628f55a4df523b3ef60405160405180910390a46113c58383836118e7565b505050565b6001816000016000828254019250508190555050565b600073ffffffffffffffffffffffffffffffffffffffff168273ffffffffffffffffffffffffffffffffffffffff161415611450576040517f08c379a000000000000000000000000000000000000000000000000000000000815260040161144790612a6e565b60405180910390fd5b61145981611876565b15611499576040517f08c379a000000000000000000000000000000000000000000000000000000000815260040161149090612ada565b60405180910390fd5b6114a5600083836118e2565b6001600360008473ffffffffffffffffffffffffffffffffffffffff1673ffffffffffffffffffffffffffffffffffffffff16815260200190815260200160002060008282546114f591906125dc565b92505081905550816002600083815260200190815260200160002060006101000a81548173ffffffffffffffffffffffffffffffffffffffff021916908373ffffffffffffffffffffffffffffffffffffffff160217905550808273ffffffffffffffffffffffffffffffffffffffff16600073ffffffffffffffffffffffffffffffffffffffff167fddf252ad1be2c89b69c2b068fc378daa952ba7f163c4a11628f55a4df523b3ef60405160405180910390a46115b6600083836118e7565b5050565b6115c382611876565b611602576040517f08c379a00000000000000000000000000000000000000000000000000000000081526004016115f990612b6c565b60405180910390fd5b80600660008481526020019081526020016000209080519060200190611629929190611bf8565b505050565b8173ffffffffffffffffffffffffffffffffffffffff168373ffffffffffffffffffffffffffffffffffffffff16141561169d576040517f08c379a000000000000000000000000000000000000000000000000000000000815260040161169490612bd8565b60405180910390fd5b80600560008573ffffffffffffffffffffffffffffffffffffffff1673ffffffffffffffffffffffffffffffffffffffff16815260200190815260200160002060008473ffffffffffffffffffffffffffffffffffffffff1673ffffffffffffffffffffffffffffffffffffffff16815260200190815260200160002060006101000a81548160ff0219169083151502179055508173ffffffffffffffffffffffffffffffffffffffff168373ffffffffffffffffffffffffffffffffffffffff167f17307eab39ab6107e8899845ad3d59bd9653f200f220920489ca2b5937696c318360405161178e9190611d4f565b60405180910390a3505050565b6117a6848484611163565b6117b2848484846118ec565b6117f1576040517f08c379a00000000000000000000000000000000000000000000000000000000081526004016117e890612c6a565b60405180910390fd5b50505050565b606060405180602001604052806000815250905090565b606061181982610fb4565b60006118236117f7565b90506000815111611843576040518060200160405280600081525061186e565b8061184d84611a74565b60405160200161185e9291906128a6565b6040516020818303038152906040525b915050919050565b60008073ffffffffffffffffffffffffffffffffffffffff166002600084815260200190815260200160002060009054906101000a900473ffffffffffffffffffffffffffffffffffffffff1673ffffffffffffffffffffffffffffffffffffffff1614159050919050565b505050565b505050565b600061190d8473ffffffffffffffffffffffffffffffffffffffff16611bd5565b15611a67578373ffffffffffffffffffffffffffffffffffffffff1663150b7a02611936610fff565b8786866040518563ffffffff1660e01b81526004016119589493929190612cdf565b6020604051808303816000875af192505050801561199457506040513d601f19601f820116820180604052508101906119919190612d40565b60015b611a17573d80600081146119c4576040519150601f19603f3d011682016040523d82523d6000602084013e6119c9565b606091505b50600081511415611a0f576040517f08c379a0000000000000000000000000000000000000000000000000000000008152600401611a0690612c6a565b60405180910390fd5b805181602001fd5b63150b7a0260e01b7bffffffffffffffffffffffffffffffffffffffffffffffffffffffff1916817bffffffffffffffffffffffffffffffffffffffffffffffffffffffff191614915050611a6c565b600190505b949350505050565b60606000821415611abc576040518060400160405280600181526020017f30000000000000000000000000000000000000000000000000000000000000008152509050611bd0565b600082905060005b60008214611aee578080611ad790612661565b915050600a82611ae79190612d9c565b9150611ac4565b60008167ffffffffffffffff811115611b0a57611b0961208d565b5b6040519080825280601f01601f191660200182016040528015611b3c5781602001600182028036833780820191505090505b5090505b60008514611bc957600182611b5591906129ee565b9150600a85611b649190612dcd565b6030611b7091906125dc565b60f81b818381518110611b8657611b85612632565b5b60200101907effffffffffffffffffffffffffffffffffffffffffffffffffffffffffffff1916908160001a905350600a85611bc29190612d9c565b9450611b40565b8093505050505b919050565b6000808273ffffffffffffffffffffffffffffffffffffffff163b119050919050565b828054611c0490612457565b90600052602060002090601f016020900481019282611c265760008555611c6d565b82601f10611c3f57805160ff1916838001178555611c6d565b82800160010185558215611c6d579182015b82811115611c6c578251825591602001919060010190611c51565b5b509050611c7a9190611c7e565b5090565b5b80821115611c97576000816000905550600101611c7f565b5090565b6000604051905090565b600080fd5b600080fd5b60007fffffffff0000000000000000000000000000000000000000000000000000000082169050919050565b611ce481611caf565b8114611cef57600080fd5b50565b600081359050611d0181611cdb565b92915050565b600060208284031215611d1d57611d1c611ca5565b5b6000611d2b84828501611cf2565b91505092915050565b60008115159050919050565b611d4981611d34565b82525050565b6000602082019050611d646000830184611d40565b92915050565b600081519050919050565b600082825260208201905092915050565b60005b83811015611da4578082015181840152602081019050611d89565b83811115611db3576000848401525b50505050565b6000601f19601f8301169050919050565b6000611dd582611d6a565b611ddf8185611d75565b9350611def818560208601611d86565b611df881611db9565b840191505092915050565b60006020820190508181036000830152611e1d8184611dca565b905092915050565b6000819050919050565b611e3881611e25565b8114611e4357600080fd5b50565b600081359050611e5581611e2f565b92915050565b600060208284031215611e7157611e70611ca5565b5b6000611e7f84828501611e46565b91505092915050565b600073ffffffffffffffffffffffffffffffffffffffff82169050919050565b6000611eb382611e88565b9050919050565b611ec381611ea8565b82525050565b6000602082019050611ede6000830184611eba565b92915050565b611eed81611ea8565b8114611ef857600080fd5b50565b600081359050611f0a81611ee4565b92915050565b60008060408385031215611f2757611f26611ca5565b5b6000611f3585828601611efb565b9250506020611f4685828601611e46565b9150509250929050565b600081519050919050565b600082825260208201905092915050565b6000819050602082019050919050565b611f8581611e25565b82525050565b6000611f978383611f7c565b60208301905092915050565b6000602082019050919050565b6000611fbb82611f50565b611fc58185611f5b565b9350611fd083611f6c565b8060005b83811015612001578151611fe88882611f8b565b9750611ff383611fa3565b925050600181019050611fd4565b5085935050505092915050565b600060208201905081810360008301526120288184611fb0565b905092915050565b60008060006060848603121561204957612048611ca5565b5b600061205786828701611efb565b935050602061206886828701611efb565b925050604061207986828701611e46565b9150509250925092565b600080fd5b600080fd5b7f4e487b7100000000000000000000000000000000000000000000000000000000600052604160045260246000fd5b6120c582611db9565b810181811067ffffffffffffffff821117156120e4576120e361208d565b5b80604052505050565b60006120f7611c9b565b905061210382826120bc565b919050565b600067ffffffffffffffff8211156121235761212261208d565b5b61212c82611db9565b9050602081019050919050565b82818337600083830152505050565b600061215b61215684612108565b6120ed565b90508281526020810184848401111561217757612176612088565b5b612182848285612139565b509392505050565b600082601f83011261219f5761219e612083565b5b81356121af848260208601612148565b91505092915050565b6000602082840312156121ce576121cd611ca5565b5b600082013567ffffffffffffffff8111156121ec576121eb611caa565b5b6121f88482850161218a565b91505092915050565b61220a81611e25565b82525050565b60006020820190506122256000830184612201565b92915050565b60006020828403121561224157612240611ca5565b5b600061224f84828501611efb565b91505092915050565b61226181611d34565b811461226c57600080fd5b50565b60008135905061227e81612258565b92915050565b6000806040838503121561229b5761229a611ca5565b5b60006122a985828601611efb565b92505060206122ba8582860161226f565b9150509250929050565b600067ffffffffffffffff8211156122df576122de61208d565b5b6122e882611db9565b9050602081019050919050565b6000612308612303846122c4565b6120ed565b90508281526020810184848401111561232457612323612088565b5b61232f848285612139565b509392505050565b600082601f83011261234c5761234b612083565b5b813561235c8482602086016122f5565b91505092915050565b6000806000806080858703121561237f5761237e611ca5565b5b600061238d87828801611efb565b945050602061239e87828801611efb565b93505060406123af87828801611e46565b925050606085013567ffffffffffffffff8111156123d0576123cf611caa565b5b6123dc87828801612337565b91505092959194509250565b600080604083850312156123ff576123fe611ca5565b5b600061240d85828601611efb565b925050602061241e85828601611efb565b9150509250929050565b7f4e487b7100000000000000000000000000000000000000000000000000000000600052602260045260246000fd5b6000600282049050600182168061246f57607f821691505b6020821081141561248357612482612428565b5b50919050565b7f4552433732313a20617070726f76616c20746f2063757272656e74206f776e6560008201527f7200000000000000000000000000000000000000000000000000000000000000602082015250565b60006124e5602183611d75565b91506124f082612489565b604082019050919050565b60006020820190508181036000830152612514816124d8565b9050919050565b7f4552433732313a20617070726f76652063616c6c6572206973206e6f7420746f60008201527f6b656e206f776e6572206e6f7220617070726f76656420666f7220616c6c0000602082015250565b6000612577603e83611d75565b91506125828261251b565b604082019050919050565b600060208201905081810360008301526125a68161256a565b9050919050565b7f4e487b7100000000000000000000000000000000000000000000000000000000600052601160045260246000fd5b60006125e782611e25565b91506125f283611e25565b9250827fffffffffffffffffffffffffffffffffffffffffffffffffffffffffffffffff03821115612627576126266125ad565b5b828201905092915050565b7f4e487b7100000000000000000000000000000000000000000000000000000000600052603260045260246000fd5b600061266c82611e25565b91507fffffffffffffffffffffffffffffffffffffffffffffffffffffffffffffffff82141561269f5761269e6125ad565b5b600182019050919050565b7f4552433732313a2063616c6c6572206973206e6f7420746f6b656e206f776e6560008201527f72206e6f7220617070726f766564000000000000000000000000000000000000602082015250565b6000612706602e83611d75565b9150612711826126aa565b604082019050919050565b60006020820190508181036000830152612735816126f9565b9050919050565b600060408201905081810360008301526127568185611dca565b90506127656020830184611eba565b9392505050565b7f4552433732313a20696e76616c696420746f6b656e2049440000000000000000600082015250565b60006127a2601883611d75565b91506127ad8261276c565b602082019050919050565b600060208201905081810360008301526127d181612795565b9050919050565b7f4552433732313a2061646472657373207a65726f206973206e6f74206120766160008201527f6c6964206f776e65720000000000000000000000000000000000000000000000602082015250565b6000612834602983611d75565b915061283f826127d8565b604082019050919050565b6000602082019050818103600083015261286381612827565b9050919050565b600081905092915050565b600061288082611d6a565b61288a818561286a565b935061289a818560208601611d86565b80840191505092915050565b60006128b28285612875565b91506128be8284612875565b91508190509392505050565b7f4552433732313a207472616e736665722066726f6d20696e636f72726563742060008201527f6f776e6572000000000000000000000000000000000000000000000000000000602082015250565b6000612926602583611d75565b9150612931826128ca565b604082019050919050565b6000602082019050818103600083015261295581612919565b9050919050565b7f4552433732313a207472616e7366657220746f20746865207a65726f2061646460008201527f7265737300000000000000000000000000000000000000000000000000000000602082015250565b60006129b8602483611d75565b91506129c38261295c565b604082019050919050565b600060208201905081810360008301526129e7816129ab565b9050919050565b60006129f982611e25565b9150612a0483611e25565b925082821015612a1757612a166125ad565b5b828203905092915050565b7f4552433732313a206d696e7420746f20746865207a65726f2061646472657373600082015250565b6000612a58602083611d75565b9150612a6382612a22565b602082019050919050565b60006020820190508181036000830152612a8781612a4b565b9050919050565b7f4552433732313a20746f6b656e20616c7265616479206d696e74656400000000600082015250565b6000612ac4601c83611d75565b9150612acf82612a8e565b602082019050919050565b60006020820190508181036000830152612af381612ab7565b9050919050565b7f45524337323155524953746f726167653a2055524920736574206f66206e6f6e60008201527f6578697374656e7420746f6b656e000000000000000000000000000000000000602082015250565b6000612b56602e83611d75565b9150612b6182612afa565b604082019050919050565b60006020820190508181036000830152612b8581612b49565b9050919050565b7f4552433732313a20617070726f766520746f2063616c6c657200000000000000600082015250565b6000612bc2601983611d75565b9150612bcd82612b8c565b602082019050919050565b60006020820190508181036000830152612bf181612bb5565b9050919050565b7f4552433732313a207472616e7366657220746f206e6f6e20455243373231526560008201527f63656976657220696d706c656d656e7465720000000000000000000000000000602082015250565b6000612c54603283611d75565b9150612c5f82612bf8565b604082019050919050565b60006020820190508181036000830152612c8381612c47565b9050919050565b600081519050919050565b600082825260208201905092915050565b6000612cb182612c8a565b612cbb8185612c95565b9350612ccb818560208601611d86565b612cd481611db9565b840191505092915050565b6000608082019050612cf46000830187611eba565b612d016020830186611eba565b612d0e6040830185612201565b8181036060830152612d208184612ca6565b905095945050505050565b600081519050612d3a81611cdb565b92915050565b600060208284031215612d5657612d55611ca5565b5b6000612d6484828501612d2b565b91505092915050565b7f4e487b7100000000000000000000000000000000000000000000000000000000600052601260045260246000fd5b6000612da782611e25565b9150612db283611e25565b925082612dc257612dc1612d6d565b5b828204905092915050565b6000612dd882611e25565b9150612de383611e25565b925082612df357612df2612d6d565b5b82820690509291505056fea26469706673582212207b45fb7fa57a063b2957a06956b60d4ad3b094a9f709b3bf9e6600556f48b9db64736f6c634300080a0033",
  "linkReferences": {},
  "deployedLinkReferences": {}
}