{
  "_format": "hh-sol-artifact-1",
  "contractName": "Marketplace",
  "sourceName": "contracts/Marketplace.sol",
  "abi": [
    {
      "inputs": [],
      "stateMutability": "nonpayable",
      "type": "constructor"
    },
    {
      "anonymous": false,
      "inputs": [
        {
          "indexed": true,
          "internalType": "uint256",
          "name": "marketItemId",
          "type": "uint256"
        },
        {
          "indexed": true,
          "internalType": "address",
          "name": "nftContract",
          "type": "address"
        },
        {
          "indexed": true,
          "internalType": "uint256",
          "name": "tokenId",
          "type": "uint256"
        },
        {
          "indexed": false,
          "internalType": "address",
          "name": "creator",
          "type": "address"
        },
        {
          "indexed": false,
          "internalType": "address",
          "name": "seller",
          "type": "address"
        },
        {
          "indexed": false,
          "internalType": "address",
          "name": "owner",
          "type": "address"
        },
        {
          "indexed": false,
          "internalType": "uint256",
          "name": "price",
          "type": "uint256"
        },
        {
          "indexed": false,
          "internalType": "bool",
          "name": "sold",
          "type": "bool"
        },
        {
          "indexed": false,
          "internalType": "bool",
          "name": "canceled",
          "type": "bool"
        }
      ],
      "name": "MarketItemCreated",
      "type": "event"
    },
    {
      "inputs": [
        {
          "internalType": "address",
          "name": "nftContractAddress",
          "type": "address"
        },
        {
          "internalType": "uint256",
          "name": "marketItemId",
          "type": "uint256"
        }
      ],
      "name": "cancelMarketItem",
      "outputs": [],
      "stateMutability": "payable",
      "type": "function"
    },
    {
      "inputs": [
        {
          "internalType": "address",
          "name": "nftContractAddress",
          "type": "address"
        },
        {
          "internalType": "uint256",
          "name": "tokenId",
          "type": "uint256"
        },
        {
          "internalType": "uint256",
          "name": "price",
          "type": "uint256"
        }
      ],
      "name": "createMarketItem",
      "outputs": [
        {
          "internalType": "uint256",
          "name": "",
          "type": "uint256"
        }
      ],
      "stateMutability": "payable",
      "type": "function"
    },
    {
      "inputs": [
        {
          "internalType": "address",
          "name": "nftContractAddress",
          "type": "address"
        },
        {
          "internalType": "uint256",
          "name": "marketItemId",
          "type": "uint256"
        }
      ],
      "name": "createMarketSale",
      "outputs": [],
      "stateMutability": "payable",
      "type": "function"
    },
    {
      "inputs": [],
      "name": "fetchAvailableMarketItems",
      "outputs": [
        {
          "components": [
            {
              "internalType": "uint256",
              "name": "marketItemId",
              "type": "uint256"
            },
            {
              "internalType": "address",
              "name": "nftContractAddress",
              "type": "address"
            },
            {
              "internalType": "uint256",
              "name": "tokenId",
              "type": "uint256"
            },
            {
              "internalType": "address payable",
              "name": "creator",
              "type": "address"
            },
            {
              "internalType": "address payable",
              "name": "seller",
              "type": "address"
            },
            {
              "internalType": "address payable",
              "name": "owner",
              "type": "address"
            },
            {
              "internalType": "uint256",
              "name": "price",
              "type": "uint256"
            },
            {
              "internalType": "bool",
              "name": "sold",
              "type": "bool"
            },
            {
              "internalType": "bool",
              "name": "canceled",
              "type": "bool"
            }
          ],
          "internalType": "struct Marketplace.MarketItem[]",
          "name": "",
          "type": "tuple[]"
        }
      ],
      "stateMutability": "view",
      "type": "function"
    },
    {
      "inputs": [
        {
          "internalType": "string",
          "name": "_addressProperty",
          "type": "string"
        }
      ],
      "name": "fetchMarketItemsByAddressProperty",
      "outputs": [
        {
          "components": [
            {
              "internalType": "uint256",
              "name": "marketItemId",
              "type": "uint256"
            },
            {
              "internalType": "address",
              "name": "nftContractAddress",
              "type": "address"
            },
            {
              "internalType": "uint256",
              "name": "tokenId",
              "type": "uint256"
            },
            {
              "internalType": "address payable",
              "name": "creator",
              "type": "address"
            },
            {
              "internalType": "address payable",
              "name": "seller",
              "type": "address"
            },
            {
              "internalType": "address payable",
              "name": "owner",
              "type": "address"
            },
            {
              "internalType": "uint256",
              "name": "price",
              "type": "uint256"
            },
            {
              "internalType": "bool",
              "name": "sold",
              "type": "bool"
            },
            {
              "internalType": "bool",
              "name": "canceled",
              "type": "bool"
            }
          ],
          "internalType": "struct Marketplace.MarketItem[]",
          "name": "",
          "type": "tuple[]"
        }
      ],
      "stateMutability": "view",
      "type": "function"
    },
    {
      "inputs": [],
      "name": "fetchOwnedMarketItems",
      "outputs": [
        {
          "components": [
            {
              "internalType": "uint256",
              "name": "marketItemId",
              "type": "uint256"
            },
            {
              "internalType": "address",
              "name": "nftContractAddress",
              "type": "address"
            },
            {
              "internalType": "uint256",
              "name": "tokenId",
              "type": "uint256"
            },
            {
              "internalType": "address payable",
              "name": "creator",
              "type": "address"
            },
            {
              "internalType": "address payable",
              "name": "seller",
              "type": "address"
            },
            {
              "internalType": "address payable",
              "name": "owner",
              "type": "address"
            },
            {
              "internalType": "uint256",
              "name": "price",
              "type": "uint256"
            },
            {
              "internalType": "bool",
              "name": "sold",
              "type": "bool"
            },
            {
              "internalType": "bool",
              "name": "canceled",
              "type": "bool"
            }
          ],
          "internalType": "struct Marketplace.MarketItem[]",
          "name": "",
          "type": "tuple[]"
        }
      ],
      "stateMutability": "view",
      "type": "function"
    },
    {
      "inputs": [],
      "name": "fetchSellingMarketItems",
      "outputs": [
        {
          "components": [
            {
              "internalType": "uint256",
              "name": "marketItemId",
              "type": "uint256"
            },
            {
              "internalType": "address",
              "name": "nftContractAddress",
              "type": "address"
            },
            {
              "internalType": "uint256",
              "name": "tokenId",
              "type": "uint256"
            },
            {
              "internalType": "address payable",
              "name": "creator",
              "type": "address"
            },
            {
              "internalType": "address payable",
              "name": "seller",
              "type": "address"
            },
            {
              "internalType": "address payable",
              "name": "owner",
              "type": "address"
            },
            {
              "internalType": "uint256",
              "name": "price",
              "type": "uint256"
            },
            {
              "internalType": "bool",
              "name": "sold",
              "type": "bool"
            },
            {
              "internalType": "bool",
              "name": "canceled",
              "type": "bool"
            }
          ],
          "internalType": "struct Marketplace.MarketItem[]",
          "name": "",
          "type": "tuple[]"
        }
      ],
      "stateMutability": "view",
      "type": "function"
    },
    {
      "inputs": [
        {
          "internalType": "uint256",
          "name": "tokenId",
          "type": "uint256"
        }
      ],
      "name": "getLatestMarketItemByTokenId",
      "outputs": [
        {
          "components": [
            {
              "internalType": "uint256",
              "name": "marketItemId",
              "type": "uint256"
            },
            {
              "internalType": "address",
              "name": "nftContractAddress",
              "type": "address"
            },
            {
              "internalType": "uint256",
              "name": "tokenId",
              "type": "uint256"
            },
            {
              "internalType": "address payable",
              "name": "creator",
              "type": "address"
            },
            {
              "internalType": "address payable",
              "name": "seller",
              "type": "address"
            },
            {
              "internalType": "address payable",
              "name": "owner",
              "type": "address"
            },
            {
              "internalType": "uint256",
              "name": "price",
              "type": "uint256"
            },
            {
              "internalType": "bool",
              "name": "sold",
              "type": "bool"
            },
            {
              "internalType": "bool",
              "name": "canceled",
              "type": "bool"
            }
          ],
          "internalType": "struct Marketplace.MarketItem",
          "name": "",
          "type": "tuple"
        },
        {
          "internalType": "bool",
          "name": "",
          "type": "bool"
        }
      ],
      "stateMutability": "view",
      "type": "function"
    },
    {
      "inputs": [],
      "name": "getListingFee",
      "outputs": [
        {
          "internalType": "uint256",
          "name": "",
          "type": "uint256"
        }
      ],
      "stateMutability": "view",
      "type": "function"
    }
  ],
  "bytecode": "0x6080604052669fdf42f6e4800060055534801561001b57600080fd5b50600160008190555033600460006101000a81548173ffffffffffffffffffffffffffffffffffffffff021916908373ffffffffffffffffffffffffffffffffffffffff160217905550612867806100746000396000f3fe6080604052600436106100865760003560e01c80636f9b4920116100595780636f9b49201461013c578063b3e3c42f1461017a578063b8fe6abe14610196578063c23b139e146101c1578063cd90fdf4146101dd57610086565b80630203c8231461008b5780630e01c969146100b65780634cf2a069146100e157806358eb2df51461010c575b600080fd5b34801561009757600080fd5b506100a061021a565b6040516100ad9190611d8e565b60405180910390f35b3480156100c257600080fd5b506100cb61025f565b6040516100d89190611d8e565b60405180910390f35b3480156100ed57600080fd5b506100f6610573565b6040516101039190611d8e565b60405180910390f35b61012660048036038101906101219190611e1c565b6105b8565b6040516101339190611e7e565b60405180910390f35b34801561014857600080fd5b50610163600480360381019061015e9190611e99565b610a34565b604051610171929190611f8c565b60405180910390f35b610194600480360381019061018f9190611fb7565b610c74565b005b3480156101a257600080fd5b506101ab610ece565b6040516101b89190611e7e565b60405180910390f35b6101db60048036038101906101d69190611fb7565b610ed8565b005b3480156101e957600080fd5b5061020460048036038101906101ff919061213d565b611191565b6040516102119190611d8e565b60405180910390f35b606061025a6040518060400160405280600581526020017f6f776e6572000000000000000000000000000000000000000000000000000000815250611191565b905090565b6060600061026d600161194b565b9050600061027b600261194b565b90506000610289600361194b565b9050600081838561029a91906121b5565b6102a491906121b5565b905060008167ffffffffffffffff8111156102c2576102c1612012565b5b6040519080825280602002602001820160405280156102fb57816020015b6102e8611ae9565b8152602001906001900390816102e05790505b5090506000805b868110156105665760006006600060018461031d91906121e9565b815260200190815260200160002060405180610120016040529081600082015481526020016001820160009054906101000a900473ffffffffffffffffffffffffffffffffffffffff1673ffffffffffffffffffffffffffffffffffffffff1673ffffffffffffffffffffffffffffffffffffffff168152602001600282015481526020016003820160009054906101000a900473ffffffffffffffffffffffffffffffffffffffff1673ffffffffffffffffffffffffffffffffffffffff1673ffffffffffffffffffffffffffffffffffffffff1681526020016004820160009054906101000a900473ffffffffffffffffffffffffffffffffffffffff1673ffffffffffffffffffffffffffffffffffffffff1673ffffffffffffffffffffffffffffffffffffffff1681526020016005820160009054906101000a900473ffffffffffffffffffffffffffffffffffffffff1673ffffffffffffffffffffffffffffffffffffffff1673ffffffffffffffffffffffffffffffffffffffff168152602001600682015481526020016007820160009054906101000a900460ff161515151581526020016007820160019054906101000a900460ff1615151515815250509050600073ffffffffffffffffffffffffffffffffffffffff168160a0015173ffffffffffffffffffffffffffffffffffffffff16146105235750610553565b808484815181106105375761053661223f565b5b602002602001018190525060018361054f91906121e9565b9250505b808061055e9061226e565b915050610302565b5081965050505050505090565b60606105b36040518060400160405280600681526020017f73656c6c65720000000000000000000000000000000000000000000000000000815250611191565b905090565b600060026000541415610600576040517f08c379a00000000000000000000000000000000000000000000000000000000081526004016105f790612314565b60405180910390fd5b60026000819055506000821161064b576040517f08c379a000000000000000000000000000000000000000000000000000000000815260040161064290612380565b60405180910390fd5b600554341461068f576040517f08c379a000000000000000000000000000000000000000000000000000000000815260040161068690612412565b60405180910390fd5b6106996001611959565b60006106a5600161194b565b905060008573ffffffffffffffffffffffffffffffffffffffff1663867d3397866040518263ffffffff1660e01b81526004016106e29190611e7e565b602060405180830381865afa1580156106ff573d6000803e3d6000fd5b505050506040513d601f19601f820116820180604052508101906107239190612447565b90506040518061012001604052808381526020018773ffffffffffffffffffffffffffffffffffffffff1681526020018681526020018273ffffffffffffffffffffffffffffffffffffffff1681526020013373ffffffffffffffffffffffffffffffffffffffff168152602001600073ffffffffffffffffffffffffffffffffffffffff16815260200185815260200160001515815260200160001515815250600660008481526020019081526020016000206000820151816000015560208201518160010160006101000a81548173ffffffffffffffffffffffffffffffffffffffff021916908373ffffffffffffffffffffffffffffffffffffffff1602179055506040820151816002015560608201518160030160006101000a81548173ffffffffffffffffffffffffffffffffffffffff021916908373ffffffffffffffffffffffffffffffffffffffff16021790555060808201518160040160006101000a81548173ffffffffffffffffffffffffffffffffffffffff021916908373ffffffffffffffffffffffffffffffffffffffff16021790555060a08201518160050160006101000a81548173ffffffffffffffffffffffffffffffffffffffff021916908373ffffffffffffffffffffffffffffffffffffffff16021790555060c0820151816006015560e08201518160070160006101000a81548160ff0219169083151502179055506101008201518160070160016101000a81548160ff0219169083151502179055509050508573ffffffffffffffffffffffffffffffffffffffff166323b872dd3330886040518463ffffffff1660e01b815260040161099293929190612483565b600060405180830381600087803b1580156109ac57600080fd5b505af11580156109c0573d6000803e3d6000fd5b50505050848673ffffffffffffffffffffffffffffffffffffffff16837fa3b15201f5409f14cce6233dc60972278c313ff3ddbdee57ff092c0e95313526843360008a600080604051610a1896959493929190612519565b60405180910390a4819250505060016000819055509392505050565b610a3c611ae9565b600080610a49600161194b565b905060008190505b6000811115610c5c5760006006600083815260200190815260200160002060405180610120016040529081600082015481526020016001820160009054906101000a900473ffffffffffffffffffffffffffffffffffffffff1673ffffffffffffffffffffffffffffffffffffffff1673ffffffffffffffffffffffffffffffffffffffff168152602001600282015481526020016003820160009054906101000a900473ffffffffffffffffffffffffffffffffffffffff1673ffffffffffffffffffffffffffffffffffffffff1673ffffffffffffffffffffffffffffffffffffffff1681526020016004820160009054906101000a900473ffffffffffffffffffffffffffffffffffffffff1673ffffffffffffffffffffffffffffffffffffffff1673ffffffffffffffffffffffffffffffffffffffff1681526020016005820160009054906101000a900473ffffffffffffffffffffffffffffffffffffffff1673ffffffffffffffffffffffffffffffffffffffff1673ffffffffffffffffffffffffffffffffffffffff168152602001600682015481526020016007820160009054906101000a900460ff161515151581526020016007820160019054906101000a900460ff161515151581525050905085816040015114610c3a5750610c49565b80600194509450505050610c6f565b8080610c549061257a565b915050610a51565b50610c65611ae9565b8060009350935050505b915091565b60026000541415610cba576040517f08c379a0000000000000000000000000000000000000000000000000000000008152600401610cb190612314565b60405180910390fd5b600260008190555060006006600083815260200190815260200160002060020154905060008111610d20576040517f08c379a0000000000000000000000000000000000000000000000000000000008152600401610d17906125f0565b60405180910390fd5b3373ffffffffffffffffffffffffffffffffffffffff166006600084815260200190815260200160002060040160009054906101000a900473ffffffffffffffffffffffffffffffffffffffff1673ffffffffffffffffffffffffffffffffffffffff1614610dc4576040517f08c379a0000000000000000000000000000000000000000000000000000000008152600401610dbb9061265c565b60405180910390fd5b8273ffffffffffffffffffffffffffffffffffffffff166323b872dd3033846040518463ffffffff1660e01b8152600401610e0193929190612483565b600060405180830381600087803b158015610e1b57600080fd5b505af1158015610e2f573d6000803e3d6000fd5b50505050336006600084815260200190815260200160002060050160006101000a81548173ffffffffffffffffffffffffffffffffffffffff021916908373ffffffffffffffffffffffffffffffffffffffff16021790555060016006600084815260200190815260200160002060070160016101000a81548160ff021916908315150217905550610ec16003611959565b5060016000819055505050565b6000600554905090565b60026000541415610f1e576040517f08c379a0000000000000000000000000000000000000000000000000000000008152600401610f1590612314565b60405180910390fd5b6002600081905550600060066000838152602001908152602001600020600601549050600060066000848152602001908152602001600020600201549050813414610f9e576040517f08c379a0000000000000000000000000000000000000000000000000000000008152600401610f95906126ee565b60405180910390fd5b336006600085815260200190815260200160002060050160006101000a81548173ffffffffffffffffffffffffffffffffffffffff021916908373ffffffffffffffffffffffffffffffffffffffff16021790555060016006600085815260200190815260200160002060070160006101000a81548160ff0219169083151502179055506006600084815260200190815260200160002060040160009054906101000a900473ffffffffffffffffffffffffffffffffffffffff1673ffffffffffffffffffffffffffffffffffffffff166108fc349081150290604051600060405180830381858888f1935050505015801561109e573d6000803e3d6000fd5b508373ffffffffffffffffffffffffffffffffffffffff166323b872dd3033846040518463ffffffff1660e01b81526004016110dc93929190612483565b600060405180830381600087803b1580156110f657600080fd5b505af115801561110a573d6000803e3d6000fd5b505050506111186002611959565b600460009054906101000a900473ffffffffffffffffffffffffffffffffffffffff1673ffffffffffffffffffffffffffffffffffffffff166108fc6005549081150290604051600060405180830381858888f19350505050158015611182573d6000803e3d6000fd5b50505060016000819055505050565b60606111d2826040518060400160405280600681526020017f73656c6c6572000000000000000000000000000000000000000000000000000081525061196f565b806112185750611217826040518060400160405280600581526020017f6f776e657200000000000000000000000000000000000000000000000000000081525061196f565b5b611257576040517f08c379a000000000000000000000000000000000000000000000000000000000815260040161124e90612780565b60405180910390fd5b6000611263600161194b565b905060008060005b838110156114bb5760006006600060018461128691906121e9565b81526020019081526020016000209050600061145a8260405180610120016040529081600082015481526020016001820160009054906101000a900473ffffffffffffffffffffffffffffffffffffffff1673ffffffffffffffffffffffffffffffffffffffff1673ffffffffffffffffffffffffffffffffffffffff168152602001600282015481526020016003820160009054906101000a900473ffffffffffffffffffffffffffffffffffffffff1673ffffffffffffffffffffffffffffffffffffffff1673ffffffffffffffffffffffffffffffffffffffff1681526020016004820160009054906101000a900473ffffffffffffffffffffffffffffffffffffffff1673ffffffffffffffffffffffffffffffffffffffff1673ffffffffffffffffffffffffffffffffffffffff1681526020016005820160009054906101000a900473ffffffffffffffffffffffffffffffffffffffff1673ffffffffffffffffffffffffffffffffffffffff1673ffffffffffffffffffffffffffffffffffffffff168152602001600682015481526020016007820160009054906101000a900460ff161515151581526020016007820160019054906101000a900460ff161515151581525050896119c8565b90503373ffffffffffffffffffffffffffffffffffffffff168173ffffffffffffffffffffffffffffffffffffffff16146114965750506114a8565b6001856114a391906121e9565b945050505b80806114b39061226e565b91505061126b565b5060008267ffffffffffffffff8111156114d8576114d7612012565b5b60405190808252806020026020018201604052801561151157816020015b6114fe611ae9565b8152602001906001900390816114f65790505b50905060005b8481101561193e5760006006600060018461153291906121e9565b8152602001908152602001600020905060006117068260405180610120016040529081600082015481526020016001820160009054906101000a900473ffffffffffffffffffffffffffffffffffffffff1673ffffffffffffffffffffffffffffffffffffffff1673ffffffffffffffffffffffffffffffffffffffff168152602001600282015481526020016003820160009054906101000a900473ffffffffffffffffffffffffffffffffffffffff1673ffffffffffffffffffffffffffffffffffffffff1673ffffffffffffffffffffffffffffffffffffffff1681526020016004820160009054906101000a900473ffffffffffffffffffffffffffffffffffffffff1673ffffffffffffffffffffffffffffffffffffffff1673ffffffffffffffffffffffffffffffffffffffff1681526020016005820160009054906101000a900473ffffffffffffffffffffffffffffffffffffffff1673ffffffffffffffffffffffffffffffffffffffff1673ffffffffffffffffffffffffffffffffffffffff168152602001600682015481526020016007820160009054906101000a900460ff161515151581526020016007820160019054906101000a900460ff1615151515815250508a6119c8565b90503373ffffffffffffffffffffffffffffffffffffffff168173ffffffffffffffffffffffffffffffffffffffff161461174257505061192b565b8160405180610120016040529081600082015481526020016001820160009054906101000a900473ffffffffffffffffffffffffffffffffffffffff1673ffffffffffffffffffffffffffffffffffffffff1673ffffffffffffffffffffffffffffffffffffffff168152602001600282015481526020016003820160009054906101000a900473ffffffffffffffffffffffffffffffffffffffff1673ffffffffffffffffffffffffffffffffffffffff1673ffffffffffffffffffffffffffffffffffffffff1681526020016004820160009054906101000a900473ffffffffffffffffffffffffffffffffffffffff1673ffffffffffffffffffffffffffffffffffffffff1673ffffffffffffffffffffffffffffffffffffffff1681526020016005820160009054906101000a900473ffffffffffffffffffffffffffffffffffffffff1673ffffffffffffffffffffffffffffffffffffffff1673ffffffffffffffffffffffffffffffffffffffff168152602001600682015481526020016007820160009054906101000a900460ff161515151581526020016007820160019054906101000a900460ff16151515158152505084868151811061190e5761190d61223f565b5b602002602001018190525060018561192691906121e9565b945050505b80806119369061226e565b915050611517565b5080945050505050919050565b600081600001549050919050565b6001816000016000828254019250508190555050565b600081604051602001611982919061281a565b60405160208183030381529060405280519060200120836040516020016119a9919061281a565b6040516020818303038152906040528051906020012014905092915050565b6000611a09826040518060400160405280600681526020017f73656c6c6572000000000000000000000000000000000000000000000000000081525061196f565b80611a4f5750611a4e826040518060400160405280600581526020017f6f776e657200000000000000000000000000000000000000000000000000000081525061196f565b5b611a8e576040517f08c379a0000000000000000000000000000000000000000000000000000000008152600401611a8590612780565b60405180910390fd5b611acd826040518060400160405280600681526020017f73656c6c6572000000000000000000000000000000000000000000000000000081525061196f565b611adb578260a00151611ae1565b82608001515b905092915050565b60405180610120016040528060008152602001600073ffffffffffffffffffffffffffffffffffffffff16815260200160008152602001600073ffffffffffffffffffffffffffffffffffffffff168152602001600073ffffffffffffffffffffffffffffffffffffffff168152602001600073ffffffffffffffffffffffffffffffffffffffff168152602001600081526020016000151581526020016000151581525090565b600081519050919050565b600082825260208201905092915050565b6000819050602082019050919050565b6000819050919050565b611bd081611bbd565b82525050565b600073ffffffffffffffffffffffffffffffffffffffff82169050919050565b6000611c0182611bd6565b9050919050565b611c1181611bf6565b82525050565b6000611c2282611bd6565b9050919050565b611c3281611c17565b82525050565b60008115159050919050565b611c4d81611c38565b82525050565b61012082016000820151611c6a6000850182611bc7565b506020820151611c7d6020850182611c08565b506040820151611c906040850182611bc7565b506060820151611ca36060850182611c29565b506080820151611cb66080850182611c29565b5060a0820151611cc960a0850182611c29565b5060c0820151611cdc60c0850182611bc7565b5060e0820151611cef60e0850182611c44565b50610100820151611d04610100850182611c44565b50505050565b6000611d168383611c53565b6101208301905092915050565b6000602082019050919050565b6000611d3b82611b91565b611d458185611b9c565b9350611d5083611bad565b8060005b83811015611d81578151611d688882611d0a565b9750611d7383611d23565b925050600181019050611d54565b5085935050505092915050565b60006020820190508181036000830152611da88184611d30565b905092915050565b6000604051905090565b600080fd5b600080fd5b611dcd81611bf6565b8114611dd857600080fd5b50565b600081359050611dea81611dc4565b92915050565b611df981611bbd565b8114611e0457600080fd5b50565b600081359050611e1681611df0565b92915050565b600080600060608486031215611e3557611e34611dba565b5b6000611e4386828701611ddb565b9350506020611e5486828701611e07565b9250506040611e6586828701611e07565b9150509250925092565b611e7881611bbd565b82525050565b6000602082019050611e936000830184611e6f565b92915050565b600060208284031215611eaf57611eae611dba565b5b6000611ebd84828501611e07565b91505092915050565b61012082016000820151611edd6000850182611bc7565b506020820151611ef06020850182611c08565b506040820151611f036040850182611bc7565b506060820151611f166060850182611c29565b506080820151611f296080850182611c29565b5060a0820151611f3c60a0850182611c29565b5060c0820151611f4f60c0850182611bc7565b5060e0820151611f6260e0850182611c44565b50610100820151611f77610100850182611c44565b50505050565b611f8681611c38565b82525050565b600061014082019050611fa26000830185611ec6565b611fb0610120830184611f7d565b9392505050565b60008060408385031215611fce57611fcd611dba565b5b6000611fdc85828601611ddb565b9250506020611fed85828601611e07565b9150509250929050565b600080fd5b600080fd5b6000601f19601f8301169050919050565b7f4e487b7100000000000000000000000000000000000000000000000000000000600052604160045260246000fd5b61204a82612001565b810181811067ffffffffffffffff8211171561206957612068612012565b5b80604052505050565b600061207c611db0565b90506120888282612041565b919050565b600067ffffffffffffffff8211156120a8576120a7612012565b5b6120b182612001565b9050602081019050919050565b82818337600083830152505050565b60006120e06120db8461208d565b612072565b9050828152602081018484840111156120fc576120fb611ffc565b5b6121078482856120be565b509392505050565b600082601f83011261212457612123611ff7565b5b81356121348482602086016120cd565b91505092915050565b60006020828403121561215357612152611dba565b5b600082013567ffffffffffffffff81111561217157612170611dbf565b5b61217d8482850161210f565b91505092915050565b7f4e487b7100000000000000000000000000000000000000000000000000000000600052601160045260246000fd5b60006121c082611bbd565b91506121cb83611bbd565b9250828210156121de576121dd612186565b5b828203905092915050565b60006121f482611bbd565b91506121ff83611bbd565b9250827fffffffffffffffffffffffffffffffffffffffffffffffffffffffffffffffff0382111561223457612233612186565b5b828201905092915050565b7f4e487b7100000000000000000000000000000000000000000000000000000000600052603260045260246000fd5b600061227982611bbd565b91507fffffffffffffffffffffffffffffffffffffffffffffffffffffffffffffffff8214156122ac576122ab612186565b5b600182019050919050565b600082825260208201905092915050565b7f5265656e7472616e637947756172643a207265656e7472616e742063616c6c00600082015250565b60006122fe601f836122b7565b9150612309826122c8565b602082019050919050565b6000602082019050818103600083015261232d816122f1565b9050919050565b7f5072696365206d757374206265206174206c6561737420312077656900000000600082015250565b600061236a601c836122b7565b915061237582612334565b602082019050919050565b600060208201905081810360008301526123998161235d565b9050919050565b7f5072696365206d75737420626520657175616c20746f206c697374696e67207060008201527f7269636500000000000000000000000000000000000000000000000000000000602082015250565b60006123fc6024836122b7565b9150612407826123a0565b604082019050919050565b6000602082019050818103600083015261242b816123ef565b9050919050565b60008151905061244181611dc4565b92915050565b60006020828403121561245d5761245c611dba565b5b600061246b84828501612432565b91505092915050565b61247d81611bf6565b82525050565b60006060820190506124986000830186612474565b6124a56020830185612474565b6124b26040830184611e6f565b949350505050565b6000819050919050565b60006124df6124da6124d584611bd6565b6124ba565b611bd6565b9050919050565b60006124f1826124c4565b9050919050565b6000612503826124e6565b9050919050565b612513816124f8565b82525050565b600060c08201905061252e600083018961250a565b61253b602083018861250a565b612548604083018761250a565b6125556060830186611e6f565b6125626080830185611f7d565b61256f60a0830184611f7d565b979650505050505050565b600061258582611bbd565b9150600082141561259957612598612186565b5b600182039050919050565b7f4d61726b6574206974656d2068617320746f2065786973740000000000000000600082015250565b60006125da6018836122b7565b91506125e5826125a4565b602082019050919050565b60006020820190508181036000830152612609816125cd565b9050919050565b7f596f7520617265206e6f74207468652073656c6c657200000000000000000000600082015250565b60006126466016836122b7565b915061265182612610565b602082019050919050565b6000602082019050818103600083015261267581612639565b9050919050565b7f506c65617365207375626d6974207468652061736b696e67207072696365206960008201527f6e206f7264657220746f20636f6e74696e756500000000000000000000000000602082015250565b60006126d86033836122b7565b91506126e38261267c565b604082019050919050565b60006020820190508181036000830152612707816126cb565b9050919050565b7f506172616d65746572206d757374206265202773656c6c657227206f7220276f60008201527f776e657227000000000000000000000000000000000000000000000000000000602082015250565b600061276a6025836122b7565b91506127758261270e565b604082019050919050565b600060208201905081810360008301526127998161275d565b9050919050565b600081519050919050565b600081905092915050565b60005b838110156127d45780820151818401526020810190506127b9565b838111156127e3576000848401525b50505050565b60006127f4826127a0565b6127fe81856127ab565b935061280e8185602086016127b6565b80840191505092915050565b600061282682846127e9565b91508190509291505056fea2646970667358221220ea2f0c6ea136f65d3867a2569497b68817c04e9905749efab419024bd8f811ad64736f6c634300080a0033",
  "linkReferences": {},
  "deployedLinkReferences": {}
}